{
  "contractName": "Payment",
  "abi": [
    {
      "inputs": [
        {
          "internalType": "uint256",
          "name": "",
          "type": "uint256"
        }
      ],
      "name": "User_list",
      "outputs": [
        {
          "internalType": "uint256",
          "name": "user_id",
          "type": "uint256"
        },
        {
          "internalType": "string",
          "name": "user_name",
          "type": "string"
        }
      ],
      "stateMutability": "view",
      "type": "function",
      "constant": true
    },
    {
      "inputs": [],
      "name": "transaction_failed",
      "outputs": [
        {
          "internalType": "uint256",
          "name": "",
          "type": "uint256"
        }
      ],
      "stateMutability": "view",
      "type": "function",
      "constant": true
    },
    {
      "inputs": [
        {
          "internalType": "uint256",
          "name": "_user_id",
          "type": "uint256"
        },
        {
          "internalType": "string",
          "name": "_user_name",
          "type": "string"
        }
      ],
      "name": "registerUser",
      "outputs": [
        {
          "internalType": "string",
          "name": "",
          "type": "string"
        }
      ],
      "stateMutability": "nonpayable",
      "type": "function"
    },
    {
      "inputs": [
        {
          "internalType": "uint256",
          "name": "_user_id_1",
          "type": "uint256"
        },
        {
          "internalType": "uint256",
          "name": "_user_id_2",
          "type": "uint256"
        },
        {
          "internalType": "uint256",
          "name": "amount",
          "type": "uint256"
        }
      ],
      "name": "createAcc",
      "outputs": [
        {
          "internalType": "string",
          "name": "",
          "type": "string"
        }
      ],
      "stateMutability": "nonpayable",
      "type": "function"
    },
    {
      "inputs": [
        {
          "internalType": "uint256",
          "name": "_user_id_1",
          "type": "uint256"
        },
        {
          "internalType": "uint256",
          "name": "_user_id_2",
          "type": "uint256"
        }
      ],
      "name": "closeAccount",
      "outputs": [
        {
          "internalType": "string",
          "name": "",
          "type": "string"
        }
      ],
      "stateMutability": "payable",
      "type": "function",
      "payable": true
    },
    {
      "inputs": [
        {
          "internalType": "uint256",
          "name": "ind",
          "type": "uint256"
        }
      ],
      "name": "get_joint_account_matrix",
      "outputs": [
        {
          "internalType": "uint256[100]",
          "name": "",
          "type": "uint256[100]"
        }
      ],
      "stateMutability": "view",
      "type": "function",
      "constant": true
    },
    {
      "inputs": [
        {
          "internalType": "uint256",
          "name": "x",
          "type": "uint256"
        }
      ],
      "name": "check_index",
      "outputs": [
        {
          "internalType": "string",
          "name": "",
          "type": "string"
        }
      ],
      "stateMutability": "view",
      "type": "function",
      "constant": true
    },
    {
      "inputs": [
        {
          "internalType": "uint256",
          "name": "x",
          "type": "uint256"
        },
        {
          "internalType": "uint256",
          "name": "z",
          "type": "uint256"
        }
      ],
      "name": "check_account",
      "outputs": [
        {
          "internalType": "uint256",
          "name": "",
          "type": "uint256"
        }
      ],
      "stateMutability": "view",
      "type": "function",
      "constant": true
    },
    {
      "inputs": [
        {
          "internalType": "uint256[]",
          "name": "path2",
          "type": "uint256[]"
        }
      ],
      "name": "lengthof",
      "outputs": [
        {
          "internalType": "uint256",
          "name": "",
          "type": "uint256"
        }
      ],
      "stateMutability": "nonpayable",
      "type": "function"
    },
    {
      "inputs": [
        {
          "internalType": "uint256",
          "name": "_userid1",
          "type": "uint256"
        },
        {
          "internalType": "uint256",
          "name": "_userid2",
          "type": "uint256"
        },
        {
          "internalType": "uint256[]",
          "name": "path1",
          "type": "uint256[]"
        }
      ],
      "name": "sendAmount",
      "outputs": [
        {
          "internalType": "string",
          "name": "",
          "type": "string"
        }
      ],
      "stateMutability": "payable",
      "type": "function",
      "payable": true
    },
    {
      "inputs": [],
      "name": "txn_fail",
      "outputs": [
        {
          "internalType": "uint256",
          "name": "",
          "type": "uint256"
        }
      ],
      "stateMutability": "nonpayable",
      "type": "function"
    },
    {
      "inputs": [
        {
          "internalType": "uint256[]",
          "name": "abc",
          "type": "uint256[]"
        },
        {
          "internalType": "uint256",
          "name": "t",
          "type": "uint256"
        }
      ],
      "name": "check_matrix",
      "outputs": [
        {
          "internalType": "uint256",
          "name": "",
          "type": "uint256"
        }
      ],
      "stateMutability": "view",
      "type": "function",
      "constant": true
    }
  ],
  "bytecode": "0x60806040526000805560006127125534801561001a57600080fd5b506115b38061002a6000396000f3fe6080604052600436106100a75760003560e01c80639ffc0245116100645780639ffc024514610209578063b261652314610246578063b548348114610283578063bd45d6eb146102c0578063c74e4828146102f0578063e32c6f731461031b576100a7565b80631518bbf4146100ac5780631c57333e146100ea578063207e329214610127578063533459fc14610164578063592dfcf3146101a15780637e0d9d5f146101cc575b600080fd5b3480156100b857600080fd5b506100d360048036038101906100ce9190610b91565b61034b565b6040516100e1929190610c5d565b60405180910390f35b3480156100f657600080fd5b50610111600480360381019061010c9190610dc2565b6103f7565b60405161011e9190610e1e565b60405180910390f35b34801561013357600080fd5b5061014e60048036038101906101499190610b91565b6104a3565b60405161015b9190610e1e565b60405180910390f35b34801561017057600080fd5b5061018b60048036038101906101869190610b91565b61054b565b6040516101989190610eeb565b60405180910390f35b3480156101ad57600080fd5b506101b6610621565b6040516101c39190610f07565b60405180910390f35b3480156101d857600080fd5b506101f360048036038101906101ee9190610fea565b610628565b6040516102009190610f07565b60405180910390f35b34801561021557600080fd5b50610230600480360381019061022b9190611046565b61075c565b60405161023d9190610f07565b60405180910390f35b34801561025257600080fd5b5061026d60048036038101906102689190611086565b610792565b60405161027a9190610f07565b60405180910390f35b34801561028f57600080fd5b506102aa60048036038101906102a591906110cf565b61079d565b6040516102b79190610e1e565b60405180910390f35b6102da60048036038101906102d59190611046565b61083e565b6040516102e79190610e1e565b60405180910390f35b3480156102fc57600080fd5b506103056108e0565b6040516103129190610f07565b60405180910390f35b61033560048036038101906103309190611122565b6108eb565b6040516103429190610e1e565b60405180910390f35b6001602052806000526040600020600091509050806000015490806001018054610374906111c0565b80601f01602080910402602001604051908101604052809291908181526020018280546103a0906111c0565b80156103ed5780601f106103c2576101008083540402835291602001916103ed565b820191906000526020600020905b8154815290600101906020018083116103d057829003601f168201915b5050505050905082565b6060610401610adc565b6040518060400160405280858152602001848152509050806001600086815260200190815260200160002060008201518160000155602082015181600101908161044b919061139d565b50905050600160005461045e919061149e565b6000819055506040518060400160405280600581526020017f616464656400000000000000000000000000000000000000000000000000000081525091505092915050565b60606001600083815260200190815260200160002060010180546104c6906111c0565b80601f01602080910402602001604051908101604052809291908181526020018280546104f2906111c0565b801561053f5780601f106105145761010080835404028352916020019161053f565b820191906000526020600020905b81548152906001019060200180831161052257829003601f168201915b50505050509050919050565b610553610af6565b61055b610b19565b600080600091505b60648210156105ff57600090505b60648110156105ec576002826064811061058e5761058d6114d2565b5b6064020181606481106105a4576105a36114d2565b5b01548383606481106105b9576105b86114d2565b5b602002015182606481106105d0576105cf6114d2565b5b60200201818152505080806105e490611501565b915050610571565b81806105f790611501565b925050610563565b828560648110610612576106116114d2565b5b60200201519350505050919050565b6127125481565b60008060019050610637610b19565b600080600091505b60648210156106db57600090505b60648110156106c8576002826064811061066a576106696114d2565b5b6064020181606481106106805761067f6114d2565b5b0154838360648110610695576106946114d2565b5b602002015182606481106106ac576106ab6114d2565b5b60200201818152505080806106c090611501565b91505061064d565b81806106d390611501565b92505061063f565b60005b606481101561074e578387606481106106fa576106f96114d2565b5b60200201518160648110610711576107106114d2565b5b6020020151888281518110610729576107286114d2565b5b60200260200101511461073b57600094505b808061074690611501565b9150506106de565b508394505050505092915050565b600060028360648110610772576107716114d2565b5b606402018260648110610788576107876114d2565b5b0154905092915050565b600081519050919050565b606081600285606481106107b4576107b36114d2565b5b6064020184606481106107ca576107c96114d2565b5b018190555081600284606481106107e4576107e36114d2565b5b6064020185606481106107fa576107f96114d2565b5b01819055506040518060400160405280600781526020017f637265617465640000000000000000000000000000000000000000000000000081525090509392505050565b6060600060028460648110610856576108556114d2565b5b60640201836064811061086c5761086b6114d2565b5b0181905550600060028360648110610887576108866114d2565b5b60640201846064811061089d5761089c6114d2565b5b01819055506040518060400160405280600781526020017f6372656174656400000000000000000000000000000000000000000000000000815250905092915050565b600061271254905090565b606060008251905060018110610a465760008060019050600190505b82811015610a3f576000858381518110610924576109236114d2565b5b602002602001015190506000868381518110610943576109426114d2565b5b60200260200101519050600160028360648110610963576109626114d2565b5b606402018260648110610979576109786114d2565b5b01546109859190611549565b60028360648110610999576109986114d2565b5b6064020182606481106109af576109ae6114d2565b5b01819055506001600282606481106109ca576109c96114d2565b5b6064020183606481106109e0576109df6114d2565b5b01546109ec919061149e565b60028260648110610a00576109ff6114d2565b5b606402018360648110610a1657610a156114d2565b5b0181905550600184610a28919061149e565b935050508080610a3790611501565b915050610907565b5050610a9b565b600161271254610a56919061149e565b612712819055506040518060400160405280601381526020017f7472616e73616374696f6e206661696c75726500000000000000000000000000815250915050610ad5565b6040518060400160405280600581526020017f70617965640000000000000000000000000000000000000000000000000000008152509150505b9392505050565b604051806040016040528060008152602001606081525090565b60405180610c800160405280606490602082028036833780820191505090505090565b60405180610c8001604052806064905b610b31610af6565b815260200190600190039081610b295790505090565b6000604051905090565b600080fd5b600080fd5b6000819050919050565b610b6e81610b5b565b8114610b7957600080fd5b50565b600081359050610b8b81610b65565b92915050565b600060208284031215610ba757610ba6610b51565b5b6000610bb584828501610b7c565b91505092915050565b610bc781610b5b565b82525050565b600081519050919050565b600082825260208201905092915050565b60005b83811015610c07578082015181840152602081019050610bec565b60008484015250505050565b6000601f19601f8301169050919050565b6000610c2f82610bcd565b610c398185610bd8565b9350610c49818560208601610be9565b610c5281610c13565b840191505092915050565b6000604082019050610c726000830185610bbe565b8181036020830152610c848184610c24565b90509392505050565b600080fd5b600080fd5b7f4e487b7100000000000000000000000000000000000000000000000000000000600052604160045260246000fd5b610ccf82610c13565b810181811067ffffffffffffffff82111715610cee57610ced610c97565b5b80604052505050565b6000610d01610b47565b9050610d0d8282610cc6565b919050565b600067ffffffffffffffff821115610d2d57610d2c610c97565b5b610d3682610c13565b9050602081019050919050565b82818337600083830152505050565b6000610d65610d6084610d12565b610cf7565b905082815260208101848484011115610d8157610d80610c92565b5b610d8c848285610d43565b509392505050565b600082601f830112610da957610da8610c8d565b5b8135610db9848260208601610d52565b91505092915050565b60008060408385031215610dd957610dd8610b51565b5b6000610de785828601610b7c565b925050602083013567ffffffffffffffff811115610e0857610e07610b56565b5b610e1485828601610d94565b9150509250929050565b60006020820190508181036000830152610e388184610c24565b905092915050565b600060649050919050565b600081905092915050565b6000819050919050565b610e6981610b5b565b82525050565b6000610e7b8383610e60565b60208301905092915050565b6000602082019050919050565b610e9d81610e40565b610ea78184610e4b565b9250610eb282610e56565b8060005b83811015610ee3578151610eca8782610e6f565b9650610ed583610e87565b925050600181019050610eb6565b505050505050565b6000610c8082019050610f016000830184610e94565b92915050565b6000602082019050610f1c6000830184610bbe565b92915050565b600067ffffffffffffffff821115610f3d57610f3c610c97565b5b602082029050602081019050919050565b600080fd5b6000610f66610f6184610f22565b610cf7565b90508083825260208201905060208402830185811115610f8957610f88610f4e565b5b835b81811015610fb25780610f9e8882610b7c565b845260208401935050602081019050610f8b565b5050509392505050565b600082601f830112610fd157610fd0610c8d565b5b8135610fe1848260208601610f53565b91505092915050565b6000806040838503121561100157611000610b51565b5b600083013567ffffffffffffffff81111561101f5761101e610b56565b5b61102b85828601610fbc565b925050602061103c85828601610b7c565b9150509250929050565b6000806040838503121561105d5761105c610b51565b5b600061106b85828601610b7c565b925050602061107c85828601610b7c565b9150509250929050565b60006020828403121561109c5761109b610b51565b5b600082013567ffffffffffffffff8111156110ba576110b9610b56565b5b6110c684828501610fbc565b91505092915050565b6000806000606084860312156110e8576110e7610b51565b5b60006110f686828701610b7c565b935050602061110786828701610b7c565b925050604061111886828701610b7c565b9150509250925092565b60008060006060848603121561113b5761113a610b51565b5b600061114986828701610b7c565b935050602061115a86828701610b7c565b925050604084013567ffffffffffffffff81111561117b5761117a610b56565b5b61118786828701610fbc565b9150509250925092565b7f4e487b7100000000000000000000000000000000000000000000000000000000600052602260045260246000fd5b600060028204905060018216806111d857607f821691505b6020821081036111eb576111ea611191565b5b50919050565b60008190508160005260206000209050919050565b60006020601f8301049050919050565b600082821b905092915050565b6000600883026112537fffffffffffffffffffffffffffffffffffffffffffffffffffffffffffffffff82611216565b61125d8683611216565b95508019841693508086168417925050509392505050565b6000819050919050565b600061129a61129561129084610b5b565b611275565b610b5b565b9050919050565b6000819050919050565b6112b48361127f565b6112c86112c0826112a1565b848454611223565b825550505050565b600090565b6112dd6112d0565b6112e88184846112ab565b505050565b5b8181101561130c576113016000826112d5565b6001810190506112ee565b5050565b601f82111561135157611322816111f1565b61132b84611206565b8101602085101561133a578190505b61134e61134685611206565b8301826112ed565b50505b505050565b600082821c905092915050565b600061137460001984600802611356565b1980831691505092915050565b600061138d8383611363565b9150826002028217905092915050565b6113a682610bcd565b67ffffffffffffffff8111156113bf576113be610c97565b5b6113c982546111c0565b6113d4828285611310565b600060209050601f83116001811461140757600084156113f5578287015190505b6113ff8582611381565b865550611467565b601f198416611415866111f1565b60005b8281101561143d57848901518255600182019150602085019450602081019050611418565b8683101561145a5784890151611456601f891682611363565b8355505b6001600288020188555050505b505050505050565b7f4e487b7100000000000000000000000000000000000000000000000000000000600052601160045260246000fd5b60006114a982610b5b565b91506114b483610b5b565b92508282019050808211156114cc576114cb61146f565b5b92915050565b7f4e487b7100000000000000000000000000000000000000000000000000000000600052603260045260246000fd5b600061150c82610b5b565b91507fffffffffffffffffffffffffffffffffffffffffffffffffffffffffffffffff820361153e5761153d61146f565b5b600182019050919050565b600061155482610b5b565b915061155f83610b5b565b92508282039050818111156115775761157661146f565b5b9291505056fea2646970667358221220f826596e32e872ee29b48b8139d4a47c6f30c4a010b4e629921064188a924cd464736f6c63430008130033",
  "immutableReferences": {},
  "source": "// SPDX-License-Identifier: MIT\npragma solidity >=0.4.22 <0.9.0;\n\ncontract Payment {\n  uint y=0;\n  struct User {\n    uint user_id;\n    string user_name;\n    \n  }\n  mapping(uint => User) public User_list;\n  uint[100][100] joint_account;\n  uint256 constant MAX_NODES = 100;\n  uint256 public transaction_failed=0;\n  \n  function registerUser(uint _user_id,string memory _user_name) public returns(string memory)\n  {\n    User memory user_obj;\n    user_obj=User(_user_id,_user_name);\n    User_list[_user_id]=user_obj;\n    y=y+1;\n    return (\"added\");\n\n  }\n  function createAcc(uint _user_id_1,uint _user_id_2,uint amount) public returns(string memory)\n  {\n      joint_account[_user_id_1][_user_id_2]=amount;\n      joint_account[_user_id_2][_user_id_1]=amount;\n     \n      return (\"created\");\n  }\n  function closeAccount(uint _user_id_1,uint _user_id_2) public payable returns(string memory)\n  {\n    joint_account[_user_id_1][_user_id_2]=0;\n    joint_account[_user_id_2][_user_id_1]=0;\n    return (\"created\");\n  }\n  function get_joint_account_matrix(uint ind) public view returns(uint[100] memory)\n  {\n    uint[100][100] memory temp_matrix;\n    uint i;\n    uint j;\n    for(i=0;i<100;i++)\n    {\n      for(j=0;j<100;j++)\n      {\n         temp_matrix[i][j]=uint256(joint_account[i][j]);\n      }\n    }\n    return (temp_matrix[ind]);\n  }\n  function check_index(uint  x) public view returns (string memory )\n  {\n     \n     return (User_list[x].user_name);\n  } \n  function check_account(uint x,uint z) view public returns(uint)\n  {\n    return (joint_account[x][z]);\n  }\n  function lengthof(uint[] memory path2) public returns(uint)\n  {\n    return (path2.length);\n  }\n  function sendAmount(uint _userid1,uint _userid2,uint[] memory path1 ) public payable  returns(string memory)  \n  {\n        \n        uint idx=path1.length;\n        if (idx>=1) {\n            uint i=0;\n            uint j=1;\n            for(j=1;j<idx;j++)\n            {\n              uint p=path1[i];\n              uint q=path1[j];\n              \n                joint_account[p][q]=joint_account[p][q]-1;\n                joint_account[q][p]=joint_account[q][p]+1;\n              i=i+1;\n              //y//_1=y_1+1;\n            }\n          \n        } \n        else {\n          transaction_failed=transaction_failed+1;\n        return (\"transaction failure\");\n        }\n\n      //uint p=temp_matrix[x][y]-1;\n      //joint_account[x][y]=40;\n         return (\"payed\");\n  }\n  function txn_fail() public  returns (uint256)\n  {\n     \n     return (transaction_failed);\n  } \n  function check_matrix(uint[] memory abc,uint t) view public returns(uint )\n  {\n      uint pq=1;\n    uint[100][100] memory temp_matrix;\n    uint i;\n    uint j;\n    for(i=0;i<100;i++)\n    {\n      for(j=0;j<100;j++)\n      {\n         temp_matrix[i][j]=uint256(joint_account[i][j]);\n      }\n    }\n    for(uint k=0;k<100;k++)\n      {\n          if(abc[k]!=temp_matrix[t][k])\n           pq=0;\n          \n      }\n       return (pq);\n  } \n  \n}\n",
  "sourcePath": "/home/niteen/Downloads/Assignment3_blockchain/contracts/Payment.sol",
  "compiler": {
    "name": "solc",
    "version": "0.8.19+commit.7dd6d404.Emscripten.clang"
  },
  "schemaVersion": "3.4.13",
  "updatedAt": "2023-04-16T11:20:28.716Z",
  "networkType": "ethereum",
  "devdoc": {
    "kind": "dev",
    "methods": {},
    "version": 1
  },
  "userdoc": {
    "kind": "user",
    "methods": {},
    "version": 1
  }
}